{
  "contractName": "MHM2023",
  "abi": [
    {
      "inputs": [],
      "stateMutability": "nonpayable",
      "type": "constructor"
    },
    {
      "anonymous": false,
      "inputs": [
        {
          "indexed": true,
          "internalType": "address",
          "name": "approver",
          "type": "address"
        },
        {
          "indexed": true,
          "internalType": "uint256",
          "name": "mintId",
          "type": "uint256"
        }
      ],
      "name": "Approve",
      "type": "event"
    },
    {
      "anonymous": false,
      "inputs": [
        {
          "indexed": true,
          "internalType": "address",
          "name": "burner",
          "type": "address"
        },
        {
          "indexed": true,
          "internalType": "uint256",
          "name": "mintId",
          "type": "uint256"
        }
      ],
      "name": "Burn",
      "type": "event"
    },
    {
      "anonymous": false,
      "inputs": [
        {
          "indexed": true,
          "internalType": "address",
          "name": "minter",
          "type": "address"
        },
        {
          "indexed": true,
          "internalType": "uint256",
          "name": "mintId",
          "type": "uint256"
        }
      ],
      "name": "Mint",
      "type": "event"
    },
    {
      "anonymous": false,
      "inputs": [
        {
          "indexed": true,
          "internalType": "address",
          "name": "from",
          "type": "address"
        },
        {
          "indexed": true,
          "internalType": "address",
          "name": "to",
          "type": "address"
        },
        {
          "indexed": false,
          "internalType": "uint256",
          "name": "mintId",
          "type": "uint256"
        }
      ],
      "name": "Transfer",
      "type": "event"
    },
    {
      "anonymous": false,
      "inputs": [
        {
          "indexed": true,
          "internalType": "address",
          "name": "from",
          "type": "address"
        },
        {
          "indexed": true,
          "internalType": "address",
          "name": "to",
          "type": "address"
        },
        {
          "indexed": false,
          "internalType": "uint256",
          "name": "mintId",
          "type": "uint256"
        }
      ],
      "name": "TransferFrom",
      "type": "event"
    },
    {
      "inputs": [
        {
          "internalType": "address",
          "name": "walletAddress",
          "type": "address"
        }
      ],
      "name": "addAdmin",
      "outputs": [],
      "stateMutability": "nonpayable",
      "type": "function"
    },
    {
      "inputs": [
        {
          "internalType": "address",
          "name": "walletAddress",
          "type": "address"
        }
      ],
      "name": "removeAdmin",
      "outputs": [],
      "stateMutability": "nonpayable",
      "type": "function"
    },
    {
      "inputs": [
        {
          "internalType": "uint256",
          "name": "mintId",
          "type": "uint256"
        }
      ],
      "name": "mint",
      "outputs": [],
      "stateMutability": "nonpayable",
      "type": "function"
    },
    {
      "inputs": [
        {
          "internalType": "uint256",
          "name": "mintId",
          "type": "uint256"
        },
        {
          "internalType": "address",
          "name": "to",
          "type": "address"
        }
      ],
      "name": "transfer",
      "outputs": [],
      "stateMutability": "nonpayable",
      "type": "function"
    },
    {
      "inputs": [
        {
          "internalType": "address",
          "name": "from",
          "type": "address"
        },
        {
          "internalType": "address",
          "name": "to",
          "type": "address"
        },
        {
          "internalType": "uint256",
          "name": "mintId",
          "type": "uint256"
        }
      ],
      "name": "transferFrom",
      "outputs": [],
      "stateMutability": "nonpayable",
      "type": "function"
    },
    {
      "inputs": [
        {
          "internalType": "address",
          "name": "approverAddress",
          "type": "address"
        },
        {
          "internalType": "uint256",
          "name": "mintId",
          "type": "uint256"
        }
      ],
      "name": "approver",
      "outputs": [],
      "stateMutability": "nonpayable",
      "type": "function"
    },
    {
      "inputs": [
        {
          "internalType": "uint256",
          "name": "mintId",
          "type": "uint256"
        }
      ],
      "name": "lock",
      "outputs": [],
      "stateMutability": "nonpayable",
      "type": "function"
    },
    {
      "inputs": [
        {
          "internalType": "uint256",
          "name": "mintId",
          "type": "uint256"
        }
      ],
      "name": "unlock",
      "outputs": [],
      "stateMutability": "nonpayable",
      "type": "function"
    },
    {
      "inputs": [
        {
          "internalType": "uint256",
          "name": "mintId",
          "type": "uint256"
        }
      ],
      "name": "burn",
      "outputs": [],
      "stateMutability": "nonpayable",
      "type": "function"
    },
    {
      "inputs": [
        {
          "internalType": "uint256",
          "name": "mintId",
          "type": "uint256"
        }
      ],
      "name": "ownerOf",
      "outputs": [
        {
          "internalType": "address",
          "name": "",
          "type": "address"
        }
      ],
      "stateMutability": "view",
      "type": "function",
      "constant": true
    },
    {
      "inputs": [
        {
          "internalType": "uint256",
          "name": "mintId",
          "type": "uint256"
        }
      ],
      "name": "landlordOf",
      "outputs": [
        {
          "internalType": "address",
          "name": "",
          "type": "address"
        }
      ],
      "stateMutability": "view",
      "type": "function",
      "constant": true
    },
    {
      "inputs": [
        {
          "internalType": "uint256",
          "name": "mintId",
          "type": "uint256"
        }
      ],
      "name": "approverOf",
      "outputs": [
        {
          "internalType": "address",
          "name": "",
          "type": "address"
        }
      ],
      "stateMutability": "view",
      "type": "function",
      "constant": true
    }
  ],
  "bytecode": "0x60806040523480156200001157600080fd5b506200002d3360006200003360201b620019f41790919060201c565b620000cc565b600073ffffffffffffffffffffffffffffffffffffffff168173ffffffffffffffffffffffffffffffffffffffff1614156200006e57600080fd5b60018260000160008373ffffffffffffffffffffffffffffffffffffffff1673ffffffffffffffffffffffffffffffffffffffff16815260200190815260200160002060006101000a81548160ff0219169083151502179055505050565b61250680620000dc6000396000f3fe608060405234801561001057600080fd5b50600436106100b45760003560e01c80636352211e116100715780636352211e1461017557806370480275146101a5578063723f0b35146101c1578063a0712d68146101f1578063b7760c8f1461020d578063dd46706414610229576100b4565b80631785f53c146100b957806323b872dd146100d557806342966c68146100f15780634ba5d8b51461010d5780636198e339146101295780636204b1f514610145575b600080fd5b6100d360048036038101906100ce9190611c19565b610245565b005b6100ef60048036038101906100ea9190611c7c565b6102af565b005b61010b60048036038101906101069190611ccf565b61065e565b005b61012760048036038101906101229190611cfc565b6108c2565b005b610143600480360381019061013e9190611ccf565b610ccd565b005b61015f600480360381019061015a9190611ccf565b610eb1565b60405161016c9190611d4b565b60405180910390f35b61018f600480360381019061018a9190611ccf565b610fea565b60405161019c9190611d4b565b60405180910390f35b6101bf60048036038101906101ba9190611c19565b611123565b005b6101db60048036038101906101d69190611ccf565b61118d565b6040516101e89190611d4b565b60405180910390f35b61020b60048036038101906102069190611ccf565b61130a565b005b61022760048036038101906102229190611d66565b6115d2565b005b610243600480360381019061023e9190611ccf565b611811565b005b610259336000611a8c90919063ffffffff16565b610298576040517f08c379a000000000000000000000000000000000000000000000000000000000815260040161028f90611e03565b60405180910390fd5b6102ac816000611b1e90919063ffffffff16565b50565b600073ffffffffffffffffffffffffffffffffffffffff168273ffffffffffffffffffffffffffffffffffffffff16141561031f576040517f08c379a000000000000000000000000000000000000000000000000000000000815260040161031690611e6f565b60405180910390fd5b600073ffffffffffffffffffffffffffffffffffffffff166001600083815260200190815260200160002060010160009054906101000a900473ffffffffffffffffffffffffffffffffffffffff1673ffffffffffffffffffffffffffffffffffffffff1614156103c5576040517f08c379a00000000000000000000000000000000000000000000000000000000081526004016103bc90611edb565b60405180910390fd5b6001600082815260200190815260200160002060020160009054906101000a900473ffffffffffffffffffffffffffffffffffffffff1673ffffffffffffffffffffffffffffffffffffffff163373ffffffffffffffffffffffffffffffffffffffff1614610469576040517f08c379a000000000000000000000000000000000000000000000000000000000815260040161046090611f47565b60405180910390fd5b816001600083815260200190815260200160002060000160006101000a81548173ffffffffffffffffffffffffffffffffffffffff021916908373ffffffffffffffffffffffffffffffffffffffff16021790555060006001600083815260200190815260200160002060020160006101000a81548173ffffffffffffffffffffffffffffffffffffffff021916908373ffffffffffffffffffffffffffffffffffffffff1602179055508173ffffffffffffffffffffffffffffffffffffffff166001600083815260200190815260200160002060000160009054906101000a900473ffffffffffffffffffffffffffffffffffffffff1673ffffffffffffffffffffffffffffffffffffffff161480156105e75750600073ffffffffffffffffffffffffffffffffffffffff166001600083815260200190815260200160002060020160009054906101000a900473ffffffffffffffffffffffffffffffffffffffff1673ffffffffffffffffffffffffffffffffffffffff16145b6105f4576105f3611f67565b5b8173ffffffffffffffffffffffffffffffffffffffff168373ffffffffffffffffffffffffffffffffffffffff167fc0d84ce5c7ff9ca21adb0f8436ff3f4951b4bb78c4e2fae2b6837958b3946ffd836040516106519190611fa5565b60405180910390a3505050565b610672336000611a8c90919063ffffffff16565b6106b1576040517f08c379a00000000000000000000000000000000000000000000000000000000081526004016106a890611e03565b60405180910390fd5b6001600082815260200190815260200160002060010160009054906101000a900473ffffffffffffffffffffffffffffffffffffffff1673ffffffffffffffffffffffffffffffffffffffff163373ffffffffffffffffffffffffffffffffffffffff1614610755576040517f08c379a000000000000000000000000000000000000000000000000000000000815260040161074c9061200c565b60405180910390fd5b60016000828152602001908152602001600020600080820160006101000a81549073ffffffffffffffffffffffffffffffffffffffff02191690556001820160006101000a81549073ffffffffffffffffffffffffffffffffffffffff02191690556002820160006101000a81549073ffffffffffffffffffffffffffffffffffffffff02191690556002820160146101000a81549060ff02191690556002820160156101000a81549060ff02191690555050600073ffffffffffffffffffffffffffffffffffffffff166001600083815260200190815260200160002060010160009054906101000a900473ffffffffffffffffffffffffffffffffffffffff1673ffffffffffffffffffffffffffffffffffffffff161461087b5761087a611f67565b5b803373ffffffffffffffffffffffffffffffffffffffff167fcc16f5dbb4873280815c1ee09dbd06736cffcc184412cf7a71a0fdb75d397ca560405160405180910390a350565b600073ffffffffffffffffffffffffffffffffffffffff166001600083815260200190815260200160002060010160009054906101000a900473ffffffffffffffffffffffffffffffffffffffff1673ffffffffffffffffffffffffffffffffffffffff161415610968576040517f08c379a000000000000000000000000000000000000000000000000000000000815260040161095f90612078565b60405180910390fd5b600115156001600083815260200190815260200160002060020160149054906101000a900460ff16151514156109d3576040517f08c379a00000000000000000000000000000000000000000000000000000000081526004016109ca906120e4565b60405180910390fd5b600073ffffffffffffffffffffffffffffffffffffffff166001600083815260200190815260200160002060020160009054906101000a900473ffffffffffffffffffffffffffffffffffffffff1673ffffffffffffffffffffffffffffffffffffffff161480610adb57506001600082815260200190815260200160002060000160009054906101000a900473ffffffffffffffffffffffffffffffffffffffff1673ffffffffffffffffffffffffffffffffffffffff166001600083815260200190815260200160002060020160009054906101000a900473ffffffffffffffffffffffffffffffffffffffff1673ffffffffffffffffffffffffffffffffffffffff16145b610b1a576040517f08c379a0000000000000000000000000000000000000000000000000000000008152600401610b1190612150565b60405180910390fd5b6001600082815260200190815260200160002060000160009054906101000a900473ffffffffffffffffffffffffffffffffffffffff1673ffffffffffffffffffffffffffffffffffffffff163373ffffffffffffffffffffffffffffffffffffffff1614610bbe576040517f08c379a0000000000000000000000000000000000000000000000000000000008152600401610bb5906121bc565b60405180910390fd5b816001600083815260200190815260200160002060020160006101000a81548173ffffffffffffffffffffffffffffffffffffffff021916908373ffffffffffffffffffffffffffffffffffffffff1602179055508173ffffffffffffffffffffffffffffffffffffffff166001600083815260200190815260200160002060020160009054906101000a900473ffffffffffffffffffffffffffffffffffffffff1673ffffffffffffffffffffffffffffffffffffffff1614610c8557610c84611f67565b5b808273ffffffffffffffffffffffffffffffffffffffff167f90ec57f18fa7b15c6b8d5e4d1deb90796c74b2ff23d4d0cecad0cb42a96b312860405160405180910390a35050565b3373ffffffffffffffffffffffffffffffffffffffff166001600083815260200190815260200160002060020160009054906101000a900473ffffffffffffffffffffffffffffffffffffffff1673ffffffffffffffffffffffffffffffffffffffff161480610d9e57503373ffffffffffffffffffffffffffffffffffffffff166001600083815260200190815260200160002060010160009054906101000a900473ffffffffffffffffffffffffffffffffffffffff1673ffffffffffffffffffffffffffffffffffffffff16145b610ddd576040517f08c379a0000000000000000000000000000000000000000000000000000000008152600401610dd490612228565b60405180910390fd5b600115156001600083815260200190815260200160002060020160149054906101000a900460ff16151514610e47576040517f08c379a0000000000000000000000000000000000000000000000000000000008152600401610e3e90612294565b60405180910390fd5b60006001600083815260200190815260200160002060020160146101000a81548160ff021916908315150217905550600015156001600083815260200190815260200160002060020160149054906101000a900460ff16151514610eae57610ead611f67565b5b50565b6000610ec7336000611a8c90919063ffffffff16565b610f06576040517f08c379a0000000000000000000000000000000000000000000000000000000008152600401610efd90611e03565b60405180910390fd5b600073ffffffffffffffffffffffffffffffffffffffff166001600084815260200190815260200160002060000160009054906101000a900473ffffffffffffffffffffffffffffffffffffffff1673ffffffffffffffffffffffffffffffffffffffff161415610fac576040517f08c379a0000000000000000000000000000000000000000000000000000000008152600401610fa390612078565b60405180910390fd5b6001600083815260200190815260200160002060000160009054906101000a900473ffffffffffffffffffffffffffffffffffffffff169050919050565b6000611000336000611a8c90919063ffffffff16565b61103f576040517f08c379a000000000000000000000000000000000000000000000000000000000815260040161103690611e03565b60405180910390fd5b600073ffffffffffffffffffffffffffffffffffffffff166001600084815260200190815260200160002060000160009054906101000a900473ffffffffffffffffffffffffffffffffffffffff1673ffffffffffffffffffffffffffffffffffffffff1614156110e5576040517f08c379a00000000000000000000000000000000000000000000000000000000081526004016110dc90612078565b60405180910390fd5b6001600083815260200190815260200160002060010160009054906101000a900473ffffffffffffffffffffffffffffffffffffffff169050919050565b611137336000611a8c90919063ffffffff16565b611176576040517f08c379a000000000000000000000000000000000000000000000000000000000815260040161116d90611e03565b60405180910390fd5b61118a8160006119f490919063ffffffff16565b50565b60006111a3336000611a8c90919063ffffffff16565b6111e2576040517f08c379a00000000000000000000000000000000000000000000000000000000081526004016111d990611e03565b60405180910390fd5b6000821415611226576040517f08c379a000000000000000000000000000000000000000000000000000000000815260040161121d90612300565b60405180910390fd5b600073ffffffffffffffffffffffffffffffffffffffff166001600084815260200190815260200160002060000160009054906101000a900473ffffffffffffffffffffffffffffffffffffffff1673ffffffffffffffffffffffffffffffffffffffff1614156112cc576040517f08c379a00000000000000000000000000000000000000000000000000000000081526004016112c390612078565b60405180910390fd5b6001600083815260200190815260200160002060020160009054906101000a900473ffffffffffffffffffffffffffffffffffffffff169050919050565b61131e336000611a8c90919063ffffffff16565b61135d576040517f08c379a000000000000000000000000000000000000000000000000000000000815260040161135490611e03565b60405180910390fd5b600073ffffffffffffffffffffffffffffffffffffffff166001600083815260200190815260200160002060000160009054906101000a900473ffffffffffffffffffffffffffffffffffffffff1673ffffffffffffffffffffffffffffffffffffffff1614611402576040517f08c379a00000000000000000000000000000000000000000000000000000000081526004016113f99061236c565b60405180910390fd5b336001600083815260200190815260200160002060000160006101000a81548173ffffffffffffffffffffffffffffffffffffffff021916908373ffffffffffffffffffffffffffffffffffffffff160217905550336001600083815260200190815260200160002060010160006101000a81548173ffffffffffffffffffffffffffffffffffffffff021916908373ffffffffffffffffffffffffffffffffffffffff1602179055503373ffffffffffffffffffffffffffffffffffffffff166001600083815260200190815260200160002060000160009054906101000a900473ffffffffffffffffffffffffffffffffffffffff1673ffffffffffffffffffffffffffffffffffffffff1614801561157e57503373ffffffffffffffffffffffffffffffffffffffff166001600083815260200190815260200160002060010160009054906101000a900473ffffffffffffffffffffffffffffffffffffffff1673ffffffffffffffffffffffffffffffffffffffff16145b61158b5761158a611f67565b5b803373ffffffffffffffffffffffffffffffffffffffff167f0f6798a560793a54c3bcfe86a93cde1e73087d944c0ea20544137d412139688560405160405180910390a350565b600115156001600084815260200190815260200160002060020160149054906101000a900460ff161515141561163d576040517f08c379a0000000000000000000000000000000000000000000000000000000008152600401611634906123d8565b60405180910390fd5b3373ffffffffffffffffffffffffffffffffffffffff166001600084815260200190815260200160002060000160009054906101000a900473ffffffffffffffffffffffffffffffffffffffff1673ffffffffffffffffffffffffffffffffffffffff16146116e1576040517f08c379a00000000000000000000000000000000000000000000000000000000081526004016116d890612444565b60405180910390fd5b806001600084815260200190815260200160002060000160006101000a81548173ffffffffffffffffffffffffffffffffffffffff021916908373ffffffffffffffffffffffffffffffffffffffff1602179055508073ffffffffffffffffffffffffffffffffffffffff166001600084815260200190815260200160002060000160009054906101000a900473ffffffffffffffffffffffffffffffffffffffff1673ffffffffffffffffffffffffffffffffffffffff16146117a8576117a7611f67565b5b8073ffffffffffffffffffffffffffffffffffffffff163373ffffffffffffffffffffffffffffffffffffffff167fddf252ad1be2c89b69c2b068fc378daa952ba7f163c4a11628f55a4df523b3ef846040516118059190611fa5565b60405180910390a35050565b6001600082815260200190815260200160002060010160009054906101000a900473ffffffffffffffffffffffffffffffffffffffff1673ffffffffffffffffffffffffffffffffffffffff163373ffffffffffffffffffffffffffffffffffffffff1614806118e257506001600082815260200190815260200160002060020160009054906101000a900473ffffffffffffffffffffffffffffffffffffffff1673ffffffffffffffffffffffffffffffffffffffff163373ffffffffffffffffffffffffffffffffffffffff16145b611921576040517f08c379a00000000000000000000000000000000000000000000000000000000081526004016119189061200c565b60405180910390fd5b600015156001600083815260200190815260200160002060020160149054906101000a900460ff1615151461198b576040517f08c379a0000000000000000000000000000000000000000000000000000000008152600401611982906124b0565b60405180910390fd5b600180600083815260200190815260200160002060020160146101000a81548160ff021916908315150217905550600115156001600083815260200190815260200160002060020160149054906101000a900460ff161515146119f1576119f0611f67565b5b50565b600073ffffffffffffffffffffffffffffffffffffffff168173ffffffffffffffffffffffffffffffffffffffff161415611a2e57600080fd5b60018260000160008373ffffffffffffffffffffffffffffffffffffffff1673ffffffffffffffffffffffffffffffffffffffff16815260200190815260200160002060006101000a81548160ff0219169083151502179055505050565b60008073ffffffffffffffffffffffffffffffffffffffff168273ffffffffffffffffffffffffffffffffffffffff161415611ac757600080fd5b8260000160008373ffffffffffffffffffffffffffffffffffffffff1673ffffffffffffffffffffffffffffffffffffffff16815260200190815260200160002060009054906101000a900460ff16905092915050565b600073ffffffffffffffffffffffffffffffffffffffff168173ffffffffffffffffffffffffffffffffffffffff161415611b5857600080fd5b60008260000160008373ffffffffffffffffffffffffffffffffffffffff1673ffffffffffffffffffffffffffffffffffffffff16815260200190815260200160002060006101000a81548160ff0219169083151502179055505050565b600080fd5b600073ffffffffffffffffffffffffffffffffffffffff82169050919050565b6000611be682611bbb565b9050919050565b611bf681611bdb565b8114611c0157600080fd5b50565b600081359050611c1381611bed565b92915050565b600060208284031215611c2f57611c2e611bb6565b5b6000611c3d84828501611c04565b91505092915050565b6000819050919050565b611c5981611c46565b8114611c6457600080fd5b50565b600081359050611c7681611c50565b92915050565b600080600060608486031215611c9557611c94611bb6565b5b6000611ca386828701611c04565b9350506020611cb486828701611c04565b9250506040611cc586828701611c67565b9150509250925092565b600060208284031215611ce557611ce4611bb6565b5b6000611cf384828501611c67565b91505092915050565b60008060408385031215611d1357611d12611bb6565b5b6000611d2185828601611c04565b9250506020611d3285828601611c67565b9150509250929050565b611d4581611bdb565b82525050565b6000602082019050611d606000830184611d3c565b92915050565b60008060408385031215611d7d57611d7c611bb6565b5b6000611d8b85828601611c67565b9250506020611d9c85828601611c04565b9150509250929050565b600082825260208201905092915050565b7f444f53455f4e4f545f484156455f41444d494e5f524f4c450000000000000000600082015250565b6000611ded601883611da6565b9150611df882611db7565b602082019050919050565b60006020820190508181036000830152611e1c81611de0565b9050919050565b7f7265636569766572206164647265737320776173206e6f742076616c69640000600082015250565b6000611e59601e83611da6565b9150611e6482611e23565b602082019050919050565b60006020820190508181036000830152611e8881611e4c565b9050919050565b7f6d696e7449642077617320656d70747900000000000000000000000000000000600082015250565b6000611ec5601083611da6565b9150611ed082611e8f565b602082019050919050565b60006020820190508181036000830152611ef481611eb8565b9050919050565b7f4a75737420617070726f7665722063616e207472616e66657246726f6d000000600082015250565b6000611f31601d83611da6565b9150611f3c82611efb565b602082019050919050565b60006020820190508181036000830152611f6081611f24565b9050919050565b7f4e487b7100000000000000000000000000000000000000000000000000000000600052600160045260246000fd5b611f9f81611c46565b82525050565b6000602082019050611fba6000830184611f96565b92915050565b7f796f7572206e6f74206f776e6572000000000000000000000000000000000000600082015250565b6000611ff6600e83611da6565b915061200182611fc0565b602082019050919050565b6000602082019050818103600083015261202581611fe9565b9050919050565b7f6d696e74496420776173206e6f742076616c6964000000000000000000000000600082015250565b6000612062601483611da6565b915061206d8261202c565b602082019050919050565b6000602082019050818103600083015261209181612055565b9050919050565b7f646f63756d656e7420776173206c6f636b656400000000000000000000000000600082015250565b60006120ce601383611da6565b91506120d982612098565b602082019050919050565b600060208201905081810360008301526120fd816120c1565b9050919050565b7f417070726f76657220616c726561647920657869737473000000000000000000600082015250565b600061213a601783611da6565b915061214582612104565b602082019050919050565b600060208201905081810360008301526121698161212d565b9050919050565b7f4a757374206c616e646c646f722063616e20617070726f766500000000000000600082015250565b60006121a6601983611da6565b91506121b182612170565b602082019050919050565b600060208201905081810360008301526121d581612199565b9050919050565b7f796f7572206e6f7420617070726f766572000000000000000000000000000000600082015250565b6000612212601183611da6565b915061221d826121dc565b602082019050919050565b6000602082019050818103600083015261224181612205565b9050919050565b7f6d696e742069642077617320756e6c6f636b0000000000000000000000000000600082015250565b600061227e601283611da6565b915061228982612248565b602082019050919050565b600060208201905081810360008301526122ad81612271565b9050919050565b7f6d696e74496420776173206e6f74206578697374000000000000000000000000600082015250565b60006122ea601483611da6565b91506122f5826122b4565b602082019050919050565b60006020820190508181036000830152612319816122dd565b9050919050565b7f6d696e74496420616c7265616479206578697374000000000000000000000000600082015250565b6000612356601483611da6565b915061236182612320565b602082019050919050565b6000602082019050818103600083015261238581612349565b9050919050565b7f646f63756d656e7473206d757374206265206c6f636b65640000000000000000600082015250565b60006123c2601883611da6565b91506123cd8261238c565b602082019050919050565b600060208201905081810360008301526123f1816123b5565b9050919050565b7f4a757374206c616e646c6f722063616e207472616e7366657200000000000000600082015250565b600061242e601983611da6565b9150612439826123f8565b602082019050919050565b6000602082019050818103600083015261245d81612421565b9050919050565b7f6d696e74496420616c7265616479206c6f636b65640000000000000000000000600082015250565b600061249a601583611da6565b91506124a582612464565b602082019050919050565b600060208201905081810360008301526124c98161248d565b905091905056fea26469706673582212202e3534bc48fae49910361777455fe202782e14bcc03694aeb6a4b71501defa1064736f6c63430008090033",
  "immutableReferences": {},
  "source": "// SPDX-License-Identifier: GPL-3.0\r\npragma solidity ^ 0.8.9;\r\n\r\nimport \"./library/RBAC.sol\";\r\n\r\ncontract MHM2023 {\r\n    \r\n    using Roles for Roles.Role;\r\n\r\n    Roles.Role private _admins;\r\n\r\n    event Mint(address indexed minter, uint256 indexed mintId);\r\n    event Burn(address indexed burner , uint256 indexed mintId);\r\n    event TransferFrom(address indexed from, address indexed to, uint256 mintId);\r\n    event Transfer(address indexed from, address indexed to, uint256 mintId);\r\n    event Approve(address indexed approver , uint256 indexed mintId);\r\n\r\n    struct Document {\r\n        address landlor;\r\n        address owner;\r\n        address approver;\r\n        bool lock;\r\n        bool sellPosition;\r\n    }\r\n\r\n    mapping(uint256 => Document) private docInstruct;\r\n\r\n    constructor(){\r\n        // set msg.sender for first admin collection    \r\n        _admins.add(msg.sender);\r\n    }\r\n\r\n    modifier onlyAdmin (){\r\n        require(_admins.has(msg.sender) , \"DOSE_NOT_HAVE_ADMIN_ROLE\");\r\n        _;\r\n    }\r\n    \r\n    function addAdmin(address walletAddress) public onlyAdmin(){\r\n        _admins.add(walletAddress);\r\n    }\r\n\r\n    function removeAdmin(address walletAddress) public onlyAdmin(){\r\n        _admins.remove(walletAddress);\r\n    }\r\n\r\n    function mint(uint256 mintId) public onlyAdmin() {\r\n        require(docInstruct[mintId].landlor == address(0),\"mintId already exist\");\r\n        docInstruct[mintId].landlor = msg.sender;\r\n        docInstruct[mintId].owner = msg.sender;\r\n\r\n        assert((docInstruct[mintId].landlor == msg.sender)&&(docInstruct[mintId].owner == msg.sender));\r\n        emit Mint(msg.sender, mintId);\r\n    }\r\n\r\n    function transfer(uint256 mintId, address to) public {\r\n        require(docInstruct[mintId].lock != true , \"documents must be locked\");\r\n        require(docInstruct[mintId].landlor == msg.sender, \"Just landlor can transfer\");\r\n\r\n        docInstruct[mintId].landlor = to;\r\n        \r\n        assert(docInstruct[mintId].landlor == to);\r\n        emit Transfer(msg.sender, to, mintId);\r\n    }\r\n\r\n    function transferFrom(address from , address to , uint256 mintId) public {\r\n\r\n        require(to != address(0) , \"receiver address was not valid\");\r\n        require(docInstruct[mintId].owner != address(0), \"mintId was empty\");\r\n        require(msg.sender == docInstruct[mintId].approver , \"Just approver can tranferFrom\");\r\n    \r\n        docInstruct[mintId].landlor = to;\r\n        docInstruct[mintId].approver = address(0);\r\n\r\n        assert((docInstruct[mintId].landlor == to) && (docInstruct[mintId].approver == address(0)));\r\n        emit TransferFrom(from, to, mintId);\r\n    }\r\n\r\n    function approver(address approverAddress, uint256 mintId) public {\r\n        \r\n        require(docInstruct[mintId].owner != address(0), \"mintId was not valid\");\r\n        require(docInstruct[mintId].lock != true , \"document was locked\");\r\n        require((docInstruct[mintId].approver == address(0)) || (docInstruct[mintId].approver == docInstruct[mintId].landlor),\"Approver already exists\");\r\n        require(msg.sender == docInstruct[mintId].landlor , \"Just landldor can approve\");\r\n\r\n        docInstruct[mintId].approver = approverAddress;\r\n        \r\n        assert(docInstruct[mintId].approver == approverAddress);\r\n        emit Approve(approverAddress, mintId);\r\n    }\r\n\r\n    function lock(uint256 mintId) public{\r\n        require((msg.sender == docInstruct[mintId].owner) || (msg.sender == docInstruct[mintId].approver), \"your not owner\");\r\n        require(docInstruct[mintId].lock == false , \"mintId already locked\");\r\n        docInstruct[mintId].lock = true;\r\n        assert(docInstruct[mintId].lock == true);\r\n    }\r\n\r\n    function unlock(uint256 mintId) public {\r\n        require((docInstruct[mintId].approver == msg.sender)||(docInstruct[mintId].owner == msg.sender) , \"your not approver\");\r\n        require(docInstruct[mintId].lock == true , \"mint id was unlock\");\r\n        docInstruct[mintId].lock = false;\r\n        assert(docInstruct[mintId].lock == false);\r\n    }\r\n\r\n    function burn(uint256 mintId) public onlyAdmin(){\r\n        require(msg.sender == docInstruct[mintId].owner, \"your not owner\");\r\n\r\n        delete docInstruct[mintId];\r\n\r\n        assert(docInstruct[mintId].owner == address(0));\r\n\r\n        emit Burn(msg.sender, mintId);\r\n\r\n    }\r\n\r\n    function ownerOf(uint256 mintId) public onlyAdmin() view returns(address){\r\n        require(docInstruct[mintId].landlor != address(0) , \"mintId was not valid\");\r\n        return docInstruct[mintId].owner;\r\n    }\r\n\r\n    function landlordOf(uint256 mintId) public onlyAdmin() view returns (address){\r\n        require(docInstruct[mintId].landlor != address(0) , \"mintId was not valid\");\r\n        return docInstruct[mintId].landlor;\r\n    }\r\n\r\n    function approverOf(uint256 mintId) public onlyAdmin() view returns (address){\r\n        require(mintId != 0 , \"mintId was not exist\");\r\n        require(docInstruct[mintId].landlor != address(0) , \"mintId was not valid\");\r\n        return docInstruct[mintId].approver;\r\n    }\r\n\r\n}",
  "sourcePath": "D:\\Programs\\Maham\\Maham\\Frontend\\src\\contracts\\MHM2023.sol",
  "compiler": {
    "name": "solc",
    "version": "0.8.9+commit.e5eed63a.Emscripten.clang"
  },
  "schemaVersion": "3.4.15",
  "updatedAt": "2023-11-19T07:51:39.284Z",
  "networkType": "ethereum",
  "devdoc": {
    "kind": "dev",
    "methods": {},
    "version": 1
  },
  "userdoc": {
    "kind": "user",
    "methods": {},
    "version": 1
  }
}