{
  "contractName": "MHM2023",
  "abi": [
    {
      "inputs": [],
      "stateMutability": "nonpayable",
      "type": "constructor"
    },
    {
      "anonymous": false,
      "inputs": [
        {
          "indexed": true,
          "internalType": "address",
          "name": "approver",
          "type": "address"
        },
        {
          "indexed": true,
          "internalType": "uint256",
          "name": "mintId",
          "type": "uint256"
        }
      ],
      "name": "Approve",
      "type": "event"
    },
    {
      "anonymous": false,
      "inputs": [
        {
          "indexed": true,
          "internalType": "address",
          "name": "burner",
          "type": "address"
        },
        {
          "indexed": true,
          "internalType": "uint256",
          "name": "mintId",
          "type": "uint256"
        }
      ],
      "name": "Burn",
      "type": "event"
    },
    {
      "anonymous": false,
      "inputs": [
        {
          "indexed": true,
          "internalType": "address",
          "name": "minter",
          "type": "address"
        },
        {
          "indexed": true,
          "internalType": "uint256",
          "name": "mintId",
          "type": "uint256"
        }
      ],
      "name": "Mint",
      "type": "event"
    },
    {
      "anonymous": false,
      "inputs": [
        {
          "indexed": true,
          "internalType": "address",
          "name": "from",
          "type": "address"
        },
        {
          "indexed": true,
          "internalType": "address",
          "name": "to",
          "type": "address"
        },
        {
          "indexed": false,
          "internalType": "uint256",
          "name": "mintId",
          "type": "uint256"
        }
      ],
      "name": "Transfer",
      "type": "event"
    },
    {
      "anonymous": false,
      "inputs": [
        {
          "indexed": true,
          "internalType": "address",
          "name": "from",
          "type": "address"
        },
        {
          "indexed": true,
          "internalType": "address",
          "name": "to",
          "type": "address"
        },
        {
          "indexed": false,
          "internalType": "uint256",
          "name": "mintId",
          "type": "uint256"
        }
      ],
      "name": "TransferFrom",
      "type": "event"
    },
    {
      "inputs": [],
      "name": "addAdmin",
      "outputs": [],
      "stateMutability": "nonpayable",
      "type": "function"
    },
    {
      "inputs": [],
      "name": "removeAdmin",
      "outputs": [],
      "stateMutability": "nonpayable",
      "type": "function"
    },
    {
      "inputs": [
        {
          "internalType": "uint256",
          "name": "mintId",
          "type": "uint256"
        }
      ],
      "name": "mint",
      "outputs": [],
      "stateMutability": "nonpayable",
      "type": "function"
    },
    {
      "inputs": [
        {
          "internalType": "uint256",
          "name": "mintId",
          "type": "uint256"
        },
        {
          "internalType": "address",
          "name": "to",
          "type": "address"
        }
      ],
      "name": "transfer",
      "outputs": [],
      "stateMutability": "nonpayable",
      "type": "function"
    },
    {
      "inputs": [
        {
          "internalType": "address",
          "name": "from",
          "type": "address"
        },
        {
          "internalType": "address",
          "name": "to",
          "type": "address"
        },
        {
          "internalType": "uint256",
          "name": "mintId",
          "type": "uint256"
        }
      ],
      "name": "transferFrom",
      "outputs": [],
      "stateMutability": "nonpayable",
      "type": "function"
    },
    {
      "inputs": [
        {
          "internalType": "address",
          "name": "approverAddress",
          "type": "address"
        },
        {
          "internalType": "uint256",
          "name": "mintId",
          "type": "uint256"
        }
      ],
      "name": "approver",
      "outputs": [],
      "stateMutability": "nonpayable",
      "type": "function"
    },
    {
      "inputs": [
        {
          "internalType": "uint256",
          "name": "mintId",
          "type": "uint256"
        }
      ],
      "name": "lock",
      "outputs": [],
      "stateMutability": "nonpayable",
      "type": "function"
    },
    {
      "inputs": [
        {
          "internalType": "uint256",
          "name": "mintId",
          "type": "uint256"
        }
      ],
      "name": "unlock",
      "outputs": [],
      "stateMutability": "nonpayable",
      "type": "function"
    },
    {
      "inputs": [
        {
          "internalType": "uint256",
          "name": "mintId",
          "type": "uint256"
        }
      ],
      "name": "burn",
      "outputs": [],
      "stateMutability": "nonpayable",
      "type": "function"
    },
    {
      "inputs": [
        {
          "internalType": "uint256",
          "name": "mintId",
          "type": "uint256"
        }
      ],
      "name": "ownerOf",
      "outputs": [
        {
          "internalType": "address",
          "name": "",
          "type": "address"
        }
      ],
      "stateMutability": "view",
      "type": "function",
      "constant": true
    },
    {
      "inputs": [
        {
          "internalType": "uint256",
          "name": "mintId",
          "type": "uint256"
        }
      ],
      "name": "landlordOf",
      "outputs": [
        {
          "internalType": "address",
          "name": "",
          "type": "address"
        }
      ],
      "stateMutability": "view",
      "type": "function",
      "constant": true
    },
    {
      "inputs": [
        {
          "internalType": "uint256",
          "name": "mintId",
          "type": "uint256"
        }
      ],
      "name": "approverOf",
      "outputs": [
        {
          "internalType": "address",
          "name": "",
          "type": "address"
        }
      ],
      "stateMutability": "view",
      "type": "function",
      "constant": true
    }
  ],
  "bytecode": "0x60806040523480156200001157600080fd5b506200002d3360006200003360201b620019ce1790919060201c565b620000cc565b600073ffffffffffffffffffffffffffffffffffffffff168173ffffffffffffffffffffffffffffffffffffffff1614156200006e57600080fd5b60018260000160008373ffffffffffffffffffffffffffffffffffffffff1673ffffffffffffffffffffffffffffffffffffffff16815260200190815260200160002060006101000a81548160ff0219169083151502179055505050565b6124b380620000dc6000396000f3fe608060405234801561001057600080fd5b50600436106100b45760003560e01c80636d5aaf80116100715780636d5aaf8014610189578063723f0b35146101935780639a202d47146101c3578063a0712d68146101cd578063b7760c8f146101e9578063dd46706414610205576100b4565b806323b872dd146100b957806342966c68146100d55780634ba5d8b5146100f15780636198e3391461010d5780636204b1f5146101295780636352211e14610159575b600080fd5b6100d360048036038101906100ce9190611c29565b610221565b005b6100ef60048036038101906100ea9190611c7c565b6105d0565b005b61010b60048036038101906101069190611ca9565b610834565b005b61012760048036038101906101229190611c7c565b610c3f565b005b610143600480360381019061013e9190611c7c565b610e23565b6040516101509190611cf8565b60405180910390f35b610173600480360381019061016e9190611c7c565b610f5c565b6040516101809190611cf8565b60405180910390f35b610191611095565b005b6101ad60048036038101906101a89190611c7c565b6110fe565b6040516101ba9190611cf8565b60405180910390f35b6101cb61127b565b005b6101e760048036038101906101e29190611c7c565b6112e4565b005b61020360048036038101906101fe9190611d13565b6115ac565b005b61021f600480360381019061021a9190611c7c565b6117eb565b005b600073ffffffffffffffffffffffffffffffffffffffff168273ffffffffffffffffffffffffffffffffffffffff161415610291576040517f08c379a000000000000000000000000000000000000000000000000000000000815260040161028890611db0565b60405180910390fd5b600073ffffffffffffffffffffffffffffffffffffffff166001600083815260200190815260200160002060010160009054906101000a900473ffffffffffffffffffffffffffffffffffffffff1673ffffffffffffffffffffffffffffffffffffffff161415610337576040517f08c379a000000000000000000000000000000000000000000000000000000000815260040161032e90611e1c565b60405180910390fd5b6001600082815260200190815260200160002060020160009054906101000a900473ffffffffffffffffffffffffffffffffffffffff1673ffffffffffffffffffffffffffffffffffffffff163373ffffffffffffffffffffffffffffffffffffffff16146103db576040517f08c379a00000000000000000000000000000000000000000000000000000000081526004016103d290611e88565b60405180910390fd5b816001600083815260200190815260200160002060000160006101000a81548173ffffffffffffffffffffffffffffffffffffffff021916908373ffffffffffffffffffffffffffffffffffffffff16021790555060006001600083815260200190815260200160002060020160006101000a81548173ffffffffffffffffffffffffffffffffffffffff021916908373ffffffffffffffffffffffffffffffffffffffff1602179055508173ffffffffffffffffffffffffffffffffffffffff166001600083815260200190815260200160002060000160009054906101000a900473ffffffffffffffffffffffffffffffffffffffff1673ffffffffffffffffffffffffffffffffffffffff161480156105595750600073ffffffffffffffffffffffffffffffffffffffff166001600083815260200190815260200160002060020160009054906101000a900473ffffffffffffffffffffffffffffffffffffffff1673ffffffffffffffffffffffffffffffffffffffff16145b61056657610565611ea8565b5b8173ffffffffffffffffffffffffffffffffffffffff168373ffffffffffffffffffffffffffffffffffffffff167fc0d84ce5c7ff9ca21adb0f8436ff3f4951b4bb78c4e2fae2b6837958b3946ffd836040516105c39190611ee6565b60405180910390a3505050565b6105e4336000611a6690919063ffffffff16565b610623576040517f08c379a000000000000000000000000000000000000000000000000000000000815260040161061a90611f4d565b60405180910390fd5b6001600082815260200190815260200160002060010160009054906101000a900473ffffffffffffffffffffffffffffffffffffffff1673ffffffffffffffffffffffffffffffffffffffff163373ffffffffffffffffffffffffffffffffffffffff16146106c7576040517f08c379a00000000000000000000000000000000000000000000000000000000081526004016106be90611fb9565b60405180910390fd5b60016000828152602001908152602001600020600080820160006101000a81549073ffffffffffffffffffffffffffffffffffffffff02191690556001820160006101000a81549073ffffffffffffffffffffffffffffffffffffffff02191690556002820160006101000a81549073ffffffffffffffffffffffffffffffffffffffff02191690556002820160146101000a81549060ff02191690556002820160156101000a81549060ff02191690555050600073ffffffffffffffffffffffffffffffffffffffff166001600083815260200190815260200160002060010160009054906101000a900473ffffffffffffffffffffffffffffffffffffffff1673ffffffffffffffffffffffffffffffffffffffff16146107ed576107ec611ea8565b5b803373ffffffffffffffffffffffffffffffffffffffff167fcc16f5dbb4873280815c1ee09dbd06736cffcc184412cf7a71a0fdb75d397ca560405160405180910390a350565b600073ffffffffffffffffffffffffffffffffffffffff166001600083815260200190815260200160002060010160009054906101000a900473ffffffffffffffffffffffffffffffffffffffff1673ffffffffffffffffffffffffffffffffffffffff1614156108da576040517f08c379a00000000000000000000000000000000000000000000000000000000081526004016108d190612025565b60405180910390fd5b600115156001600083815260200190815260200160002060020160149054906101000a900460ff1615151415610945576040517f08c379a000000000000000000000000000000000000000000000000000000000815260040161093c90612091565b60405180910390fd5b600073ffffffffffffffffffffffffffffffffffffffff166001600083815260200190815260200160002060020160009054906101000a900473ffffffffffffffffffffffffffffffffffffffff1673ffffffffffffffffffffffffffffffffffffffff161480610a4d57506001600082815260200190815260200160002060000160009054906101000a900473ffffffffffffffffffffffffffffffffffffffff1673ffffffffffffffffffffffffffffffffffffffff166001600083815260200190815260200160002060020160009054906101000a900473ffffffffffffffffffffffffffffffffffffffff1673ffffffffffffffffffffffffffffffffffffffff16145b610a8c576040517f08c379a0000000000000000000000000000000000000000000000000000000008152600401610a83906120fd565b60405180910390fd5b6001600082815260200190815260200160002060000160009054906101000a900473ffffffffffffffffffffffffffffffffffffffff1673ffffffffffffffffffffffffffffffffffffffff163373ffffffffffffffffffffffffffffffffffffffff1614610b30576040517f08c379a0000000000000000000000000000000000000000000000000000000008152600401610b2790612169565b60405180910390fd5b816001600083815260200190815260200160002060020160006101000a81548173ffffffffffffffffffffffffffffffffffffffff021916908373ffffffffffffffffffffffffffffffffffffffff1602179055508173ffffffffffffffffffffffffffffffffffffffff166001600083815260200190815260200160002060020160009054906101000a900473ffffffffffffffffffffffffffffffffffffffff1673ffffffffffffffffffffffffffffffffffffffff1614610bf757610bf6611ea8565b5b808273ffffffffffffffffffffffffffffffffffffffff167f90ec57f18fa7b15c6b8d5e4d1deb90796c74b2ff23d4d0cecad0cb42a96b312860405160405180910390a35050565b3373ffffffffffffffffffffffffffffffffffffffff166001600083815260200190815260200160002060020160009054906101000a900473ffffffffffffffffffffffffffffffffffffffff1673ffffffffffffffffffffffffffffffffffffffff161480610d1057503373ffffffffffffffffffffffffffffffffffffffff166001600083815260200190815260200160002060010160009054906101000a900473ffffffffffffffffffffffffffffffffffffffff1673ffffffffffffffffffffffffffffffffffffffff16145b610d4f576040517f08c379a0000000000000000000000000000000000000000000000000000000008152600401610d46906121d5565b60405180910390fd5b600015156001600083815260200190815260200160002060020160149054906101000a900460ff16151514610db9576040517f08c379a0000000000000000000000000000000000000000000000000000000008152600401610db090612241565b60405180910390fd5b60006001600083815260200190815260200160002060020160146101000a81548160ff021916908315150217905550600015156001600083815260200190815260200160002060020160149054906101000a900460ff16151514610e2057610e1f611ea8565b5b50565b6000610e39336000611a6690919063ffffffff16565b610e78576040517f08c379a0000000000000000000000000000000000000000000000000000000008152600401610e6f90611f4d565b60405180910390fd5b600073ffffffffffffffffffffffffffffffffffffffff166001600084815260200190815260200160002060000160009054906101000a900473ffffffffffffffffffffffffffffffffffffffff1673ffffffffffffffffffffffffffffffffffffffff161415610f1e576040517f08c379a0000000000000000000000000000000000000000000000000000000008152600401610f1590612025565b60405180910390fd5b6001600083815260200190815260200160002060000160009054906101000a900473ffffffffffffffffffffffffffffffffffffffff169050919050565b6000610f72336000611a6690919063ffffffff16565b610fb1576040517f08c379a0000000000000000000000000000000000000000000000000000000008152600401610fa890611f4d565b60405180910390fd5b600073ffffffffffffffffffffffffffffffffffffffff166001600084815260200190815260200160002060000160009054906101000a900473ffffffffffffffffffffffffffffffffffffffff1673ffffffffffffffffffffffffffffffffffffffff161415611057576040517f08c379a000000000000000000000000000000000000000000000000000000000815260040161104e90612025565b60405180910390fd5b6001600083815260200190815260200160002060010160009054906101000a900473ffffffffffffffffffffffffffffffffffffffff169050919050565b6110a9336000611a6690919063ffffffff16565b6110e8576040517f08c379a00000000000000000000000000000000000000000000000000000000081526004016110df90611f4d565b60405180910390fd5b6110fc3360006119ce90919063ffffffff16565b565b6000611114336000611a6690919063ffffffff16565b611153576040517f08c379a000000000000000000000000000000000000000000000000000000000815260040161114a90611f4d565b60405180910390fd5b6000821415611197576040517f08c379a000000000000000000000000000000000000000000000000000000000815260040161118e906122ad565b60405180910390fd5b600073ffffffffffffffffffffffffffffffffffffffff166001600084815260200190815260200160002060000160009054906101000a900473ffffffffffffffffffffffffffffffffffffffff1673ffffffffffffffffffffffffffffffffffffffff16141561123d576040517f08c379a000000000000000000000000000000000000000000000000000000000815260040161123490612025565b60405180910390fd5b6001600083815260200190815260200160002060020160009054906101000a900473ffffffffffffffffffffffffffffffffffffffff169050919050565b61128f336000611a6690919063ffffffff16565b6112ce576040517f08c379a00000000000000000000000000000000000000000000000000000000081526004016112c590611f4d565b60405180910390fd5b6112e2336000611af890919063ffffffff16565b565b6112f8336000611a6690919063ffffffff16565b611337576040517f08c379a000000000000000000000000000000000000000000000000000000000815260040161132e90611f4d565b60405180910390fd5b600073ffffffffffffffffffffffffffffffffffffffff166001600083815260200190815260200160002060000160009054906101000a900473ffffffffffffffffffffffffffffffffffffffff1673ffffffffffffffffffffffffffffffffffffffff16146113dc576040517f08c379a00000000000000000000000000000000000000000000000000000000081526004016113d390612319565b60405180910390fd5b336001600083815260200190815260200160002060000160006101000a81548173ffffffffffffffffffffffffffffffffffffffff021916908373ffffffffffffffffffffffffffffffffffffffff160217905550336001600083815260200190815260200160002060010160006101000a81548173ffffffffffffffffffffffffffffffffffffffff021916908373ffffffffffffffffffffffffffffffffffffffff1602179055503373ffffffffffffffffffffffffffffffffffffffff166001600083815260200190815260200160002060000160009054906101000a900473ffffffffffffffffffffffffffffffffffffffff1673ffffffffffffffffffffffffffffffffffffffff1614801561155857503373ffffffffffffffffffffffffffffffffffffffff166001600083815260200190815260200160002060010160009054906101000a900473ffffffffffffffffffffffffffffffffffffffff1673ffffffffffffffffffffffffffffffffffffffff16145b61156557611564611ea8565b5b803373ffffffffffffffffffffffffffffffffffffffff167f0f6798a560793a54c3bcfe86a93cde1e73087d944c0ea20544137d412139688560405160405180910390a350565b600115156001600084815260200190815260200160002060020160149054906101000a900460ff1615151415611617576040517f08c379a000000000000000000000000000000000000000000000000000000000815260040161160e90612385565b60405180910390fd5b3373ffffffffffffffffffffffffffffffffffffffff166001600084815260200190815260200160002060000160009054906101000a900473ffffffffffffffffffffffffffffffffffffffff1673ffffffffffffffffffffffffffffffffffffffff16146116bb576040517f08c379a00000000000000000000000000000000000000000000000000000000081526004016116b2906123f1565b60405180910390fd5b806001600084815260200190815260200160002060000160006101000a81548173ffffffffffffffffffffffffffffffffffffffff021916908373ffffffffffffffffffffffffffffffffffffffff1602179055508073ffffffffffffffffffffffffffffffffffffffff166001600084815260200190815260200160002060000160009054906101000a900473ffffffffffffffffffffffffffffffffffffffff1673ffffffffffffffffffffffffffffffffffffffff161461178257611781611ea8565b5b8073ffffffffffffffffffffffffffffffffffffffff163373ffffffffffffffffffffffffffffffffffffffff167fddf252ad1be2c89b69c2b068fc378daa952ba7f163c4a11628f55a4df523b3ef846040516117df9190611ee6565b60405180910390a35050565b6001600082815260200190815260200160002060010160009054906101000a900473ffffffffffffffffffffffffffffffffffffffff1673ffffffffffffffffffffffffffffffffffffffff163373ffffffffffffffffffffffffffffffffffffffff1614806118bc57506001600082815260200190815260200160002060020160009054906101000a900473ffffffffffffffffffffffffffffffffffffffff1673ffffffffffffffffffffffffffffffffffffffff163373ffffffffffffffffffffffffffffffffffffffff16145b6118fb576040517f08c379a00000000000000000000000000000000000000000000000000000000081526004016118f290611fb9565b60405180910390fd5b600015156001600083815260200190815260200160002060020160149054906101000a900460ff16151514611965576040517f08c379a000000000000000000000000000000000000000000000000000000000815260040161195c9061245d565b60405180910390fd5b600180600083815260200190815260200160002060020160146101000a81548160ff021916908315150217905550600115156001600083815260200190815260200160002060020160149054906101000a900460ff161515146119cb576119ca611ea8565b5b50565b600073ffffffffffffffffffffffffffffffffffffffff168173ffffffffffffffffffffffffffffffffffffffff161415611a0857600080fd5b60018260000160008373ffffffffffffffffffffffffffffffffffffffff1673ffffffffffffffffffffffffffffffffffffffff16815260200190815260200160002060006101000a81548160ff0219169083151502179055505050565b60008073ffffffffffffffffffffffffffffffffffffffff168273ffffffffffffffffffffffffffffffffffffffff161415611aa157600080fd5b8260000160008373ffffffffffffffffffffffffffffffffffffffff1673ffffffffffffffffffffffffffffffffffffffff16815260200190815260200160002060009054906101000a900460ff16905092915050565b600073ffffffffffffffffffffffffffffffffffffffff168173ffffffffffffffffffffffffffffffffffffffff161415611b3257600080fd5b60008260000160008373ffffffffffffffffffffffffffffffffffffffff1673ffffffffffffffffffffffffffffffffffffffff16815260200190815260200160002060006101000a81548160ff0219169083151502179055505050565b600080fd5b600073ffffffffffffffffffffffffffffffffffffffff82169050919050565b6000611bc082611b95565b9050919050565b611bd081611bb5565b8114611bdb57600080fd5b50565b600081359050611bed81611bc7565b92915050565b6000819050919050565b611c0681611bf3565b8114611c1157600080fd5b50565b600081359050611c2381611bfd565b92915050565b600080600060608486031215611c4257611c41611b90565b5b6000611c5086828701611bde565b9350506020611c6186828701611bde565b9250506040611c7286828701611c14565b9150509250925092565b600060208284031215611c9257611c91611b90565b5b6000611ca084828501611c14565b91505092915050565b60008060408385031215611cc057611cbf611b90565b5b6000611cce85828601611bde565b9250506020611cdf85828601611c14565b9150509250929050565b611cf281611bb5565b82525050565b6000602082019050611d0d6000830184611ce9565b92915050565b60008060408385031215611d2a57611d29611b90565b5b6000611d3885828601611c14565b9250506020611d4985828601611bde565b9150509250929050565b600082825260208201905092915050565b7f7265636569766572206164647265737320776173206e6f742076616c69640000600082015250565b6000611d9a601e83611d53565b9150611da582611d64565b602082019050919050565b60006020820190508181036000830152611dc981611d8d565b9050919050565b7f6d696e7449642077617320656d70747900000000000000000000000000000000600082015250565b6000611e06601083611d53565b9150611e1182611dd0565b602082019050919050565b60006020820190508181036000830152611e3581611df9565b9050919050565b7f4a75737420617070726f7665722063616e207472616e66657246726f6d000000600082015250565b6000611e72601d83611d53565b9150611e7d82611e3c565b602082019050919050565b60006020820190508181036000830152611ea181611e65565b9050919050565b7f4e487b7100000000000000000000000000000000000000000000000000000000600052600160045260246000fd5b611ee081611bf3565b82525050565b6000602082019050611efb6000830184611ed7565b92915050565b7f444f53455f4e4f545f484156455f41444d494e5f524f4c450000000000000000600082015250565b6000611f37601883611d53565b9150611f4282611f01565b602082019050919050565b60006020820190508181036000830152611f6681611f2a565b9050919050565b7f796f7572206e6f74206f776e6572000000000000000000000000000000000000600082015250565b6000611fa3600e83611d53565b9150611fae82611f6d565b602082019050919050565b60006020820190508181036000830152611fd281611f96565b9050919050565b7f6d696e74496420776173206e6f742076616c6964000000000000000000000000600082015250565b600061200f601483611d53565b915061201a82611fd9565b602082019050919050565b6000602082019050818103600083015261203e81612002565b9050919050565b7f646f63756d656e7420776173206c6f636b656400000000000000000000000000600082015250565b600061207b601383611d53565b915061208682612045565b602082019050919050565b600060208201905081810360008301526120aa8161206e565b9050919050565b7f417070726f76657220616c726561647920657869737473000000000000000000600082015250565b60006120e7601783611d53565b91506120f2826120b1565b602082019050919050565b60006020820190508181036000830152612116816120da565b9050919050565b7f4a757374206c616e646c646f722063616e20617070726f766500000000000000600082015250565b6000612153601983611d53565b915061215e8261211d565b602082019050919050565b6000602082019050818103600083015261218281612146565b9050919050565b7f796f7572206e6f7420617070726f766572000000000000000000000000000000600082015250565b60006121bf601183611d53565b91506121ca82612189565b602082019050919050565b600060208201905081810360008301526121ee816121b2565b9050919050565b7f6d696e742069642077617320756e6c6f636b0000000000000000000000000000600082015250565b600061222b601283611d53565b9150612236826121f5565b602082019050919050565b6000602082019050818103600083015261225a8161221e565b9050919050565b7f6d696e74496420776173206e6f74206578697374000000000000000000000000600082015250565b6000612297601483611d53565b91506122a282612261565b602082019050919050565b600060208201905081810360008301526122c68161228a565b9050919050565b7f6d696e74496420616c7265616479206578697374000000000000000000000000600082015250565b6000612303601483611d53565b915061230e826122cd565b602082019050919050565b60006020820190508181036000830152612332816122f6565b9050919050565b7f646f63756d656e7473206d757374206265206c6f636b65640000000000000000600082015250565b600061236f601883611d53565b915061237a82612339565b602082019050919050565b6000602082019050818103600083015261239e81612362565b9050919050565b7f4a757374206c616e646c6f722063616e207472616e7366657200000000000000600082015250565b60006123db601983611d53565b91506123e6826123a5565b602082019050919050565b6000602082019050818103600083015261240a816123ce565b9050919050565b7f6d696e74496420616c7265616479206c6f636b65640000000000000000000000600082015250565b6000612447601583611d53565b915061245282612411565b602082019050919050565b600060208201905081810360008301526124768161243a565b905091905056fea2646970667358221220d7ebd32f3f027a804119edb6b70d8fc96898164a2e8e42a954450ac186599dd564736f6c63430008090033",
  "immutableReferences": {},
  "source": "// SPDX-License-Identifier: GPL-3.0\r\npragma solidity ^ 0.8.9;\r\n\r\nimport \"./library/RBAC.sol\";\r\n\r\ncontract MHM2023 {\r\n    \r\n    using Roles for Roles.Role;\r\n\r\n    Roles.Role private _admins;\r\n\r\n    event Mint(address indexed minter, uint256 indexed mintId);\r\n    event Burn(address indexed burner , uint256 indexed mintId);\r\n    event TransferFrom(address indexed from, address indexed to, uint256 mintId);\r\n    event Transfer(address indexed from, address indexed to, uint256 mintId);\r\n    event Approve(address indexed approver , uint256 indexed mintId);\r\n\r\n    struct Document {\r\n        address landlor;\r\n        address owner;\r\n        address approver;\r\n        bool lock;\r\n        bool sellPosition;\r\n    }\r\n\r\n    mapping(uint256 => Document) private docInstruct;\r\n\r\n    constructor(){\r\n        // set msg.sender for first admin collection    \r\n        _admins.add(msg.sender);\r\n    }\r\n\r\n    modifier onlyAdmin (){\r\n        require(_admins.has(msg.sender) , \"DOSE_NOT_HAVE_ADMIN_ROLE\");\r\n        _;\r\n    }\r\n    \r\n    function addAdmin() public onlyAdmin(){\r\n        _admins.add(msg.sender);\r\n    }\r\n\r\n    function removeAdmin() public onlyAdmin(){\r\n        _admins.remove(msg.sender);\r\n    }\r\n\r\n    function mint(uint256 mintId) public onlyAdmin() {\r\n        require(docInstruct[mintId].landlor == address(0),\"mintId already exist\");\r\n        docInstruct[mintId].landlor = msg.sender;\r\n        docInstruct[mintId].owner = msg.sender;\r\n\r\n        assert((docInstruct[mintId].landlor == msg.sender)&&(docInstruct[mintId].owner == msg.sender));\r\n        emit Mint(msg.sender, mintId);\r\n    }\r\n\r\n    function transfer(uint256 mintId, address to) public {\r\n        require(docInstruct[mintId].lock != true , \"documents must be locked\");\r\n        require(docInstruct[mintId].landlor == msg.sender, \"Just landlor can transfer\");\r\n\r\n        docInstruct[mintId].landlor = to;\r\n        \r\n        assert(docInstruct[mintId].landlor == to);\r\n        emit Transfer(msg.sender, to, mintId);\r\n    }\r\n\r\n    function transferFrom(address from , address to , uint256 mintId) public {\r\n\r\n        require(to != address(0) , \"receiver address was not valid\");\r\n        require(docInstruct[mintId].owner != address(0), \"mintId was empty\");\r\n        require(msg.sender == docInstruct[mintId].approver , \"Just approver can tranferFrom\");\r\n    \r\n        docInstruct[mintId].landlor = to;\r\n        docInstruct[mintId].approver = address(0);\r\n\r\n        assert((docInstruct[mintId].landlor == to) && (docInstruct[mintId].approver == address(0)));\r\n        emit TransferFrom(from, to, mintId);\r\n    }\r\n\r\n    function approver(address approverAddress, uint256 mintId) public {\r\n        \r\n        require(docInstruct[mintId].owner != address(0), \"mintId was not valid\");\r\n        require(docInstruct[mintId].lock != true , \"document was locked\");\r\n        require((docInstruct[mintId].approver == address(0)) || (docInstruct[mintId].approver == docInstruct[mintId].landlor),\"Approver already exists\");\r\n        require(msg.sender == docInstruct[mintId].landlor , \"Just landldor can approve\");\r\n\r\n        docInstruct[mintId].approver = approverAddress;\r\n        \r\n        assert(docInstruct[mintId].approver == approverAddress);\r\n        emit Approve(approverAddress, mintId);\r\n    }\r\n\r\n    function lock(uint256 mintId) public{\r\n        require((msg.sender == docInstruct[mintId].owner) || (msg.sender == docInstruct[mintId].approver), \"your not owner\");\r\n        require(docInstruct[mintId].lock == false , \"mintId already locked\");\r\n        docInstruct[mintId].lock = true;\r\n        assert(docInstruct[mintId].lock == true);\r\n    }\r\n\r\n    function unlock(uint256 mintId) public {\r\n        require((docInstruct[mintId].approver == msg.sender)||(docInstruct[mintId].owner == msg.sender) , \"your not approver\");\r\n        require(docInstruct[mintId].lock == false , \"mint id was unlock\");\r\n        docInstruct[mintId].lock = false;\r\n        assert(docInstruct[mintId].lock == false);\r\n    }\r\n\r\n    function burn(uint256 mintId) public onlyAdmin(){\r\n        require(msg.sender == docInstruct[mintId].owner, \"your not owner\");\r\n\r\n        delete docInstruct[mintId];\r\n\r\n        assert(docInstruct[mintId].owner == address(0));\r\n\r\n        emit Burn(msg.sender, mintId);\r\n\r\n    }\r\n\r\n    function ownerOf(uint256 mintId) public onlyAdmin() view returns(address){\r\n        require(docInstruct[mintId].landlor != address(0) , \"mintId was not valid\");\r\n        return docInstruct[mintId].owner;\r\n    }\r\n\r\n    function landlordOf(uint256 mintId) public onlyAdmin() view returns (address){\r\n        require(docInstruct[mintId].landlor != address(0) , \"mintId was not valid\");\r\n        return docInstruct[mintId].landlor;\r\n    }\r\n\r\n    function approverOf(uint256 mintId) public onlyAdmin() view returns (address){\r\n        require(mintId != 0 , \"mintId was not exist\");\r\n        require(docInstruct[mintId].landlor != address(0) , \"mintId was not valid\");\r\n        return docInstruct[mintId].approver;\r\n    }\r\n\r\n}",
  "sourcePath": "C:\\Users\\V I S I O N\\OneDrive\\Desktop\\Frontend\\src\\contracts\\MHM2023.sol",
  "compiler": {
    "name": "solc",
    "version": "0.8.9+commit.e5eed63a.Emscripten.clang"
  },
  "schemaVersion": "3.4.15",
  "updatedAt": "2023-10-12T07:38:01.215Z",
  "networkType": "ethereum",
  "devdoc": {
    "kind": "dev",
    "methods": {},
    "version": 1
  },
  "userdoc": {
    "kind": "user",
    "methods": {},
    "version": 1
  }
}