{
  "contractName": "MHM2023",
  "abi": [
    {
      "anonymous": false,
      "inputs": [
        {
          "indexed": true,
          "internalType": "address",
          "name": "approver",
          "type": "address"
        },
        {
          "indexed": true,
          "internalType": "uint256",
          "name": "mintId",
          "type": "uint256"
        }
      ],
      "name": "Approve",
      "type": "event"
    },
    {
      "anonymous": false,
      "inputs": [
        {
          "indexed": true,
          "internalType": "address",
          "name": "burner",
          "type": "address"
        },
        {
          "indexed": true,
          "internalType": "uint256",
          "name": "mintId",
          "type": "uint256"
        }
      ],
      "name": "Burn",
      "type": "event"
    },
    {
      "anonymous": false,
      "inputs": [
        {
          "indexed": true,
          "internalType": "address",
          "name": "minter",
          "type": "address"
        },
        {
          "indexed": true,
          "internalType": "uint256",
          "name": "mintId",
          "type": "uint256"
        }
      ],
      "name": "Mint",
      "type": "event"
    },
    {
      "anonymous": false,
      "inputs": [
        {
          "indexed": true,
          "internalType": "address",
          "name": "from",
          "type": "address"
        },
        {
          "indexed": true,
          "internalType": "address",
          "name": "to",
          "type": "address"
        },
        {
          "indexed": false,
          "internalType": "uint256",
          "name": "mintId",
          "type": "uint256"
        }
      ],
      "name": "Transfer",
      "type": "event"
    },
    {
      "anonymous": false,
      "inputs": [
        {
          "indexed": true,
          "internalType": "address",
          "name": "from",
          "type": "address"
        },
        {
          "indexed": true,
          "internalType": "address",
          "name": "to",
          "type": "address"
        },
        {
          "indexed": false,
          "internalType": "uint256",
          "name": "mintId",
          "type": "uint256"
        }
      ],
      "name": "TransferFrom",
      "type": "event"
    },
    {
      "inputs": [
        {
          "internalType": "uint256",
          "name": "mintId",
          "type": "uint256"
        },
        {
          "internalType": "uint256",
          "name": "price",
          "type": "uint256"
        }
      ],
      "name": "mint",
      "outputs": [],
      "stateMutability": "nonpayable",
      "type": "function"
    },
    {
      "inputs": [
        {
          "internalType": "uint256",
          "name": "mintId",
          "type": "uint256"
        }
      ],
      "name": "buy",
      "outputs": [],
      "stateMutability": "payable",
      "type": "function",
      "payable": true
    },
    {
      "inputs": [
        {
          "internalType": "uint256",
          "name": "mintId",
          "type": "uint256"
        },
        {
          "internalType": "uint256",
          "name": "price",
          "type": "uint256"
        }
      ],
      "name": "sell",
      "outputs": [],
      "stateMutability": "nonpayable",
      "type": "function"
    },
    {
      "inputs": [
        {
          "internalType": "uint256",
          "name": "mintId",
          "type": "uint256"
        },
        {
          "internalType": "address",
          "name": "to",
          "type": "address"
        }
      ],
      "name": "transfer",
      "outputs": [],
      "stateMutability": "nonpayable",
      "type": "function"
    },
    {
      "inputs": [
        {
          "internalType": "address",
          "name": "from",
          "type": "address"
        },
        {
          "internalType": "address",
          "name": "to",
          "type": "address"
        },
        {
          "internalType": "uint256",
          "name": "mintId",
          "type": "uint256"
        }
      ],
      "name": "transferFrom",
      "outputs": [],
      "stateMutability": "nonpayable",
      "type": "function"
    },
    {
      "inputs": [
        {
          "internalType": "address",
          "name": "approverAddress",
          "type": "address"
        },
        {
          "internalType": "uint256",
          "name": "mintId",
          "type": "uint256"
        }
      ],
      "name": "approver",
      "outputs": [],
      "stateMutability": "nonpayable",
      "type": "function"
    },
    {
      "inputs": [
        {
          "internalType": "uint256",
          "name": "mintId",
          "type": "uint256"
        }
      ],
      "name": "lockUnlock",
      "outputs": [],
      "stateMutability": "nonpayable",
      "type": "function"
    },
    {
      "inputs": [
        {
          "internalType": "uint256",
          "name": "mintId",
          "type": "uint256"
        }
      ],
      "name": "burn",
      "outputs": [],
      "stateMutability": "nonpayable",
      "type": "function"
    },
    {
      "inputs": [
        {
          "internalType": "uint256",
          "name": "mintId",
          "type": "uint256"
        }
      ],
      "name": "ownerOf",
      "outputs": [
        {
          "internalType": "address",
          "name": "",
          "type": "address"
        }
      ],
      "stateMutability": "view",
      "type": "function",
      "constant": true
    },
    {
      "inputs": [
        {
          "internalType": "uint256",
          "name": "mintId",
          "type": "uint256"
        }
      ],
      "name": "landlordOf",
      "outputs": [
        {
          "internalType": "address",
          "name": "",
          "type": "address"
        }
      ],
      "stateMutability": "view",
      "type": "function",
      "constant": true
    },
    {
      "inputs": [
        {
          "internalType": "uint256",
          "name": "mintId",
          "type": "uint256"
        }
      ],
      "name": "approverOf",
      "outputs": [
        {
          "internalType": "address",
          "name": "",
          "type": "address"
        }
      ],
      "stateMutability": "view",
      "type": "function",
      "constant": true
    }
  ],
  "bytecode": "0x608060405234801561001057600080fd5b506122dd806100206000396000f3fe60806040526004361061009c5760003560e01c80636352211e116100645780636352211e14610182578063723f0b35146101bf578063b7760c8f146101fc578063d79875eb14610225578063d96a094a1461024e578063e6d3dc5f1461026a5761009c565b80631b2ef1ca146100a157806323b872dd146100ca57806342966c68146100f35780634ba5d8b51461011c5780636204b1f514610145575b600080fd5b3480156100ad57600080fd5b506100c860048036038101906100c39190611952565b610293565b005b3480156100d657600080fd5b506100f160048036038101906100ec91906119f0565b610485565b005b3480156100ff57600080fd5b5061011a60048036038101906101159190611a43565b610750565b005b34801561012857600080fd5b50610143600480360381019061013e9190611a70565b610999565b005b34801561015157600080fd5b5061016c60048036038101906101679190611a43565b610d2b565b6040516101799190611abf565b60405180910390f35b34801561018e57600080fd5b506101a960048036038101906101a49190611a43565b610e52565b6040516101b69190611abf565b60405180910390f35b3480156101cb57600080fd5b506101e660048036038101906101e19190611a43565b610f79565b6040516101f39190611abf565b60405180910390f35b34801561020857600080fd5b50610223600480360381019061021e9190611ada565b6110a0565b005b34801561023157600080fd5b5061024c60048036038101906102479190611952565b61126a565b005b61026860048036038101906102639190611a43565b611467565b005b34801561027657600080fd5b50610291600480360381019061028c9190611a43565b61168c565b005b60008214156102d7576040517f08c379a00000000000000000000000000000000000000000000000000000000081526004016102ce90611b77565b60405180910390fd5b600073ffffffffffffffffffffffffffffffffffffffff1660008084815260200190815260200160002060010160009054906101000a900473ffffffffffffffffffffffffffffffffffffffff1673ffffffffffffffffffffffffffffffffffffffff161461037b576040517f08c379a000000000000000000000000000000000000000000000000000000000815260040161037290611be3565b60405180910390fd5b3360008084815260200190815260200160002060010160006101000a81548173ffffffffffffffffffffffffffffffffffffffff021916908373ffffffffffffffffffffffffffffffffffffffff1602179055503360008084815260200190815260200160002060020160006101000a81548173ffffffffffffffffffffffffffffffffffffffff021916908373ffffffffffffffffffffffffffffffffffffffff1602179055508060008084815260200190815260200160002060000181905550813373ffffffffffffffffffffffffffffffffffffffff167f0f6798a560793a54c3bcfe86a93cde1e73087d944c0ea20544137d412139688560405160405180910390a35050565b600073ffffffffffffffffffffffffffffffffffffffff168273ffffffffffffffffffffffffffffffffffffffff1614156104f5576040517f08c379a00000000000000000000000000000000000000000000000000000000081526004016104ec90611c4f565b60405180910390fd5b600073ffffffffffffffffffffffffffffffffffffffff1660008083815260200190815260200160002060020160009054906101000a900473ffffffffffffffffffffffffffffffffffffffff1673ffffffffffffffffffffffffffffffffffffffff16141561059a576040517f08c379a000000000000000000000000000000000000000000000000000000000815260040161059190611b77565b60405180910390fd5b60008082815260200190815260200160002060030160009054906101000a900473ffffffffffffffffffffffffffffffffffffffff1673ffffffffffffffffffffffffffffffffffffffff163373ffffffffffffffffffffffffffffffffffffffff161461063d576040517f08c379a000000000000000000000000000000000000000000000000000000000815260040161063490611cbb565b60405180910390fd5b8160008083815260200190815260200160002060010160006101000a81548173ffffffffffffffffffffffffffffffffffffffff021916908373ffffffffffffffffffffffffffffffffffffffff160217905550600080600083815260200190815260200160002060030160006101000a81548173ffffffffffffffffffffffffffffffffffffffff021916908373ffffffffffffffffffffffffffffffffffffffff1602179055508173ffffffffffffffffffffffffffffffffffffffff168373ffffffffffffffffffffffffffffffffffffffff167fc0d84ce5c7ff9ca21adb0f8436ff3f4951b4bb78c4e2fae2b6837958b3946ffd836040516107439190611cea565b60405180910390a3505050565b600073ffffffffffffffffffffffffffffffffffffffff1660008083815260200190815260200160002060010160009054906101000a900473ffffffffffffffffffffffffffffffffffffffff1673ffffffffffffffffffffffffffffffffffffffff1614156107f5576040517f08c379a00000000000000000000000000000000000000000000000000000000081526004016107ec90611d51565b60405180910390fd5b60008082815260200190815260200160002060020160009054906101000a900473ffffffffffffffffffffffffffffffffffffffff1673ffffffffffffffffffffffffffffffffffffffff163373ffffffffffffffffffffffffffffffffffffffff1614610898576040517f08c379a000000000000000000000000000000000000000000000000000000000815260040161088f90611dbd565b60405180910390fd5b6000808281526020019081526020016000206000808201600090556001820160006101000a81549073ffffffffffffffffffffffffffffffffffffffff02191690556002820160006101000a81549073ffffffffffffffffffffffffffffffffffffffff02191690556003820160006101000a81549073ffffffffffffffffffffffffffffffffffffffff02191690556003820160146101000a81549060ff02191690556003820160156101000a81549060ff02191690555050803373ffffffffffffffffffffffffffffffffffffffff167fcc16f5dbb4873280815c1ee09dbd06736cffcc184412cf7a71a0fdb75d397ca560405160405180910390a350565b600073ffffffffffffffffffffffffffffffffffffffff1660008083815260200190815260200160002060020160009054906101000a900473ffffffffffffffffffffffffffffffffffffffff1673ffffffffffffffffffffffffffffffffffffffff161415610a3e576040517f08c379a0000000000000000000000000000000000000000000000000000000008152600401610a3590611e29565b60405180910390fd5b6001151560008083815260200190815260200160002060030160149054906101000a900460ff1615151415610aa8576040517f08c379a0000000000000000000000000000000000000000000000000000000008152600401610a9f90611e95565b60405180910390fd5b600073ffffffffffffffffffffffffffffffffffffffff1660008083815260200190815260200160002060030160009054906101000a900473ffffffffffffffffffffffffffffffffffffffff1673ffffffffffffffffffffffffffffffffffffffff161480610bad575060008082815260200190815260200160002060010160009054906101000a900473ffffffffffffffffffffffffffffffffffffffff1673ffffffffffffffffffffffffffffffffffffffff1660008083815260200190815260200160002060030160009054906101000a900473ffffffffffffffffffffffffffffffffffffffff1673ffffffffffffffffffffffffffffffffffffffff16145b610bec576040517f08c379a0000000000000000000000000000000000000000000000000000000008152600401610be390611f01565b60405180910390fd5b60008082815260200190815260200160002060010160009054906101000a900473ffffffffffffffffffffffffffffffffffffffff1673ffffffffffffffffffffffffffffffffffffffff163373ffffffffffffffffffffffffffffffffffffffff1614610c8f576040517f08c379a0000000000000000000000000000000000000000000000000000000008152600401610c8690611f6d565b60405180910390fd5b8160008083815260200190815260200160002060030160006101000a81548173ffffffffffffffffffffffffffffffffffffffff021916908373ffffffffffffffffffffffffffffffffffffffff160217905550808273ffffffffffffffffffffffffffffffffffffffff167f90ec57f18fa7b15c6b8d5e4d1deb90796c74b2ff23d4d0cecad0cb42a96b312860405160405180910390a35050565b600080821415610d70576040517f08c379a0000000000000000000000000000000000000000000000000000000008152600401610d6790611d51565b60405180910390fd5b600073ffffffffffffffffffffffffffffffffffffffff1660008084815260200190815260200160002060010160009054906101000a900473ffffffffffffffffffffffffffffffffffffffff1673ffffffffffffffffffffffffffffffffffffffff161415610e15576040517f08c379a0000000000000000000000000000000000000000000000000000000008152600401610e0c90611e29565b60405180910390fd5b60008083815260200190815260200160002060010160009054906101000a900473ffffffffffffffffffffffffffffffffffffffff169050919050565b600080821415610e97576040517f08c379a0000000000000000000000000000000000000000000000000000000008152600401610e8e90611d51565b60405180910390fd5b600073ffffffffffffffffffffffffffffffffffffffff1660008084815260200190815260200160002060010160009054906101000a900473ffffffffffffffffffffffffffffffffffffffff1673ffffffffffffffffffffffffffffffffffffffff161415610f3c576040517f08c379a0000000000000000000000000000000000000000000000000000000008152600401610f3390611e29565b60405180910390fd5b60008083815260200190815260200160002060020160009054906101000a900473ffffffffffffffffffffffffffffffffffffffff169050919050565b600080821415610fbe576040517f08c379a0000000000000000000000000000000000000000000000000000000008152600401610fb590611d51565b60405180910390fd5b600073ffffffffffffffffffffffffffffffffffffffff1660008084815260200190815260200160002060010160009054906101000a900473ffffffffffffffffffffffffffffffffffffffff1673ffffffffffffffffffffffffffffffffffffffff161415611063576040517f08c379a000000000000000000000000000000000000000000000000000000000815260040161105a90611e29565b60405180910390fd5b60008083815260200190815260200160002060030160009054906101000a900473ffffffffffffffffffffffffffffffffffffffff169050919050565b6001151560008084815260200190815260200160002060030160149054906101000a900460ff161515141561110a576040517f08c379a000000000000000000000000000000000000000000000000000000000815260040161110190611fd9565b60405180910390fd5b3373ffffffffffffffffffffffffffffffffffffffff1660008084815260200190815260200160002060010160009054906101000a900473ffffffffffffffffffffffffffffffffffffffff1673ffffffffffffffffffffffffffffffffffffffff16146111ad576040517f08c379a00000000000000000000000000000000000000000000000000000000081526004016111a490612045565b60405180910390fd5b8060008084815260200190815260200160002060010160006101000a81548173ffffffffffffffffffffffffffffffffffffffff021916908373ffffffffffffffffffffffffffffffffffffffff1602179055508073ffffffffffffffffffffffffffffffffffffffff163373ffffffffffffffffffffffffffffffffffffffff167fddf252ad1be2c89b69c2b068fc378daa952ba7f163c4a11628f55a4df523b3ef8460405161125e9190611cea565b60405180910390a35050565b600073ffffffffffffffffffffffffffffffffffffffff1660008084815260200190815260200160002060010160009054906101000a900473ffffffffffffffffffffffffffffffffffffffff1673ffffffffffffffffffffffffffffffffffffffff16141561130f576040517f08c379a0000000000000000000000000000000000000000000000000000000008152600401611306906120b1565b60405180910390fd5b6000151560008084815260200190815260200160002060030160149054906101000a900460ff16151514611378576040517f08c379a000000000000000000000000000000000000000000000000000000000815260040161136f9061211d565b60405180910390fd5b3373ffffffffffffffffffffffffffffffffffffffff1660008084815260200190815260200160002060010160009054906101000a900473ffffffffffffffffffffffffffffffffffffffff1673ffffffffffffffffffffffffffffffffffffffff161461141b576040517f08c379a0000000000000000000000000000000000000000000000000000000008152600401611412906121af565b60405180910390fd5b8060008084815260200190815260200160002060000181905550600160008084815260200190815260200160002060030160156101000a81548160ff0219169083151502179055505050565b600073ffffffffffffffffffffffffffffffffffffffff1660008083815260200190815260200160002060010160009054906101000a900473ffffffffffffffffffffffffffffffffffffffff1673ffffffffffffffffffffffffffffffffffffffff16141561150c576040517f08c379a0000000000000000000000000000000000000000000000000000000008152600401611503906120b1565b60405180910390fd5b600080828152602001908152602001600020600001543414611563576040517f08c379a000000000000000000000000000000000000000000000000000000000815260040161155a9061221b565b60405180910390fd5b6000151560008083815260200190815260200160002060030160149054906101000a900460ff161515146115cc576040517f08c379a00000000000000000000000000000000000000000000000000000000081526004016115c39061211d565b60405180910390fd5b6001151560008083815260200190815260200160002060030160159054906101000a900460ff16151514611635576040517f08c379a000000000000000000000000000000000000000000000000000000000815260040161162c90612287565b60405180910390fd5b3360008083815260200190815260200160002060010160006101000a81548173ffffffffffffffffffffffffffffffffffffffff021916908373ffffffffffffffffffffffffffffffffffffffff16021790555050565b60008114156116d0576040517f08c379a00000000000000000000000000000000000000000000000000000000081526004016116c790611b77565b60405180910390fd5b600073ffffffffffffffffffffffffffffffffffffffff1660008083815260200190815260200160002060010160009054906101000a900473ffffffffffffffffffffffffffffffffffffffff1673ffffffffffffffffffffffffffffffffffffffff161415611775576040517f08c379a000000000000000000000000000000000000000000000000000000000815260040161176c90611d51565b60405180910390fd5b60008082815260200190815260200160002060020160009054906101000a900473ffffffffffffffffffffffffffffffffffffffff1673ffffffffffffffffffffffffffffffffffffffff163373ffffffffffffffffffffffffffffffffffffffff161480611844575060008082815260200190815260200160002060030160009054906101000a900473ffffffffffffffffffffffffffffffffffffffff1673ffffffffffffffffffffffffffffffffffffffff163373ffffffffffffffffffffffffffffffffffffffff16145b611883576040517f08c379a000000000000000000000000000000000000000000000000000000000815260040161187a90611dbd565b60405180910390fd5b6001151560008083815260200190815260200160002060030160149054906101000a900460ff16151514156118e557600080600083815260200190815260200160002060030160146101000a81548160ff021916908315150217905550611914565b600160008083815260200190815260200160002060030160146101000a81548160ff0219169083151502179055505b50565b600080fd5b6000819050919050565b61192f8161191c565b811461193a57600080fd5b50565b60008135905061194c81611926565b92915050565b6000806040838503121561196957611968611917565b5b60006119778582860161193d565b92505060206119888582860161193d565b9150509250929050565b600073ffffffffffffffffffffffffffffffffffffffff82169050919050565b60006119bd82611992565b9050919050565b6119cd816119b2565b81146119d857600080fd5b50565b6000813590506119ea816119c4565b92915050565b600080600060608486031215611a0957611a08611917565b5b6000611a17868287016119db565b9350506020611a28868287016119db565b9250506040611a398682870161193d565b9150509250925092565b600060208284031215611a5957611a58611917565b5b6000611a678482850161193d565b91505092915050565b60008060408385031215611a8757611a86611917565b5b6000611a95858286016119db565b9250506020611aa68582860161193d565b9150509250929050565b611ab9816119b2565b82525050565b6000602082019050611ad46000830184611ab0565b92915050565b60008060408385031215611af157611af0611917565b5b6000611aff8582860161193d565b9250506020611b10858286016119db565b9150509250929050565b600082825260208201905092915050565b7f6d696e7449642077617320656d70747900000000000000000000000000000000600082015250565b6000611b61601083611b1a565b9150611b6c82611b2b565b602082019050919050565b60006020820190508181036000830152611b9081611b54565b9050919050565b7f6d696e74496420616c7265616479206578697374000000000000000000000000600082015250565b6000611bcd601483611b1a565b9150611bd882611b97565b602082019050919050565b60006020820190508181036000830152611bfc81611bc0565b9050919050565b7f7265636569766572206164647265737320776173206e6f742076616c69640000600082015250565b6000611c39601e83611b1a565b9150611c4482611c03565b602082019050919050565b60006020820190508181036000830152611c6881611c2c565b9050919050565b7f4a75737420617070726f7665722063616e207472616e66657246726f6d000000600082015250565b6000611ca5601d83611b1a565b9150611cb082611c6f565b602082019050919050565b60006020820190508181036000830152611cd481611c98565b9050919050565b611ce48161191c565b82525050565b6000602082019050611cff6000830184611cdb565b92915050565b7f6d696e74496420776173206e6f74206578697374000000000000000000000000600082015250565b6000611d3b601483611b1a565b9150611d4682611d05565b602082019050919050565b60006020820190508181036000830152611d6a81611d2e565b9050919050565b7f796f7572206e6f74206f776e6572000000000000000000000000000000000000600082015250565b6000611da7600e83611b1a565b9150611db282611d71565b602082019050919050565b60006020820190508181036000830152611dd681611d9a565b9050919050565b7f6d696e74496420776173206e6f742076616c6964000000000000000000000000600082015250565b6000611e13601483611b1a565b9150611e1e82611ddd565b602082019050919050565b60006020820190508181036000830152611e4281611e06565b9050919050565b7f646f63756d656e7420776173206c6f636b656400000000000000000000000000600082015250565b6000611e7f601383611b1a565b9150611e8a82611e49565b602082019050919050565b60006020820190508181036000830152611eae81611e72565b9050919050565b7f417070726f76657220616c726561647920657869737473000000000000000000600082015250565b6000611eeb601783611b1a565b9150611ef682611eb5565b602082019050919050565b60006020820190508181036000830152611f1a81611ede565b9050919050565b7f4a757374206c616e646c646f722063616e20617070726f766500000000000000600082015250565b6000611f57601983611b1a565b9150611f6282611f21565b602082019050919050565b60006020820190508181036000830152611f8681611f4a565b9050919050565b7f646f63756d656e7473206d757374206265206c6f636b65640000000000000000600082015250565b6000611fc3601883611b1a565b9150611fce82611f8d565b602082019050919050565b60006020820190508181036000830152611ff281611fb6565b9050919050565b7f4a757374206c616e646c6f722063616e207472616e7366657200000000000000600082015250565b600061202f601983611b1a565b915061203a82611ff9565b602082019050919050565b6000602082019050818103600083015261205e81612022565b9050919050565b7f6d696e744964206e6f7420657869737400000000000000000000000000000000600082015250565b600061209b601083611b1a565b91506120a682612065565b602082019050919050565b600060208201905081810360008301526120ca8161208e565b9050919050565b7f6d696e74496420616c7265616479206c6f636b65640000000000000000000000600082015250565b6000612107601583611b1a565b9150612112826120d1565b602082019050919050565b60006020820190508181036000830152612136816120fa565b9050919050565b7f6a757374206c616e646c6f72642063616e2073656c6c2074686973206d696e7460008201527f4964000000000000000000000000000000000000000000000000000000000000602082015250565b6000612199602283611b1a565b91506121a48261213d565b604082019050919050565b600060208201905081810360008301526121c88161218c565b9050919050565b7f6e6f7420656e6f7567682076616c756500000000000000000000000000000000600082015250565b6000612205601083611b1a565b9150612210826121cf565b602082019050919050565b60006020820190508181036000830152612234816121f8565b9050919050565b7f4d696e744964206e6f7420696e207468652073656c6c20706f736974696f6e00600082015250565b6000612271601f83611b1a565b915061227c8261223b565b602082019050919050565b600060208201905081810360008301526122a081612264565b905091905056fea26469706673582212202ac9e5ef6e0968a9ca7a5e8a94269ae447abd3078a9e54b34ec3235d41ba007f64736f6c63430008090033",
  "immutableReferences": {},
  "source": "// SPDX-License-Identifier: GPL-3.0\r\npragma solidity ^ 0.8.9;\r\n\r\ncontract MHM2023 {\r\n    \r\n    event Mint(address indexed minter, uint256 indexed mintId);\r\n    event Burn(address indexed burner , uint256 indexed mintId);\r\n    event TransferFrom(address indexed from, address indexed to, uint256 mintId);\r\n    event Transfer(address indexed from, address indexed to, uint256 mintId);\r\n    event Approve(address indexed approver , uint256 indexed mintId);\r\n\r\n    struct Document {\r\n        uint256 price;\r\n        address landlor;\r\n        address owner;\r\n        address approver;\r\n        bool lock;\r\n        bool sellPosition;\r\n    }\r\n\r\n    mapping(uint256 => Document) private docInstruct;\r\n\r\n \r\n\r\n    function mint(uint256 mintId ,uint256 price) public{\r\n        require(mintId != 0, \"mintId was empty\");\r\n        require(docInstruct[mintId].landlor == address(0),\"mintId already exist\");\r\n        docInstruct[mintId].landlor = msg.sender;\r\n        docInstruct[mintId].owner = msg.sender;\r\n        docInstruct[mintId].price = price;\r\n        emit Mint(msg.sender, mintId);\r\n    }\r\n\r\n    function buy(uint256 mintId) public payable{\r\n        require(docInstruct[mintId].landlor != address(0) , \"mintId not exist\");\r\n        require(msg.value == docInstruct[mintId].price , \"not enough value\");\r\n        require(docInstruct[mintId].lock == false , \"mintId already locked\");\r\n        require(docInstruct[mintId].sellPosition == true , \"MintId not in the sell position\");\r\n\r\n        docInstruct[mintId].landlor = msg.sender;\r\n    }\r\n\r\n    function sell(uint256 mintId , uint256 price) public{\r\n        require(docInstruct[mintId].landlor != address(0) , \"mintId not exist\");\r\n        require(docInstruct[mintId].lock == false , \"mintId already locked\");\r\n        require(docInstruct[mintId].landlor == msg.sender , \"just landlord can sell this mintId\");\r\n\r\n        docInstruct[mintId].price = price;\r\n        docInstruct[mintId].sellPosition = true;\r\n    }\r\n\r\n    function transfer(uint256 mintId, address to) public {\r\n        require(docInstruct[mintId].lock != true , \"documents must be locked\");\r\n        require(docInstruct[mintId].landlor == msg.sender, \"Just landlor can transfer\");\r\n\r\n        docInstruct[mintId].landlor = to;\r\n\r\n        emit Transfer(msg.sender, to, mintId);\r\n    }\r\n\r\n    function transferFrom(address from , address to , uint256 mintId) public {\r\n\r\n        require(to != address(0) , \"receiver address was not valid\");\r\n        require(docInstruct[mintId].owner != address(0), \"mintId was empty\");\r\n        require(msg.sender == docInstruct[mintId].approver , \"Just approver can tranferFrom\");\r\n    \r\n        docInstruct[mintId].landlor = to;\r\n        docInstruct[mintId].approver = address(0);\r\n\r\n        emit TransferFrom(from, to, mintId);\r\n    }\r\n\r\n    function approver(address approverAddress, uint256 mintId) public {\r\n        \r\n        require(docInstruct[mintId].owner != address(0), \"mintId was not valid\");\r\n        require(docInstruct[mintId].lock != true , \"document was locked\");\r\n        require((docInstruct[mintId].approver == address(0)) || (docInstruct[mintId].approver == docInstruct[mintId].landlor),\"Approver already exists\");\r\n        require(msg.sender == docInstruct[mintId].landlor , \"Just landldor can approve\");\r\n\r\n        docInstruct[mintId].approver = approverAddress;\r\n\r\n        emit Approve(approverAddress, mintId);\r\n    }\r\n\r\n    function lockUnlock(uint256 mintId) public{\r\n        require(mintId != 0, \"mintId was empty\");\r\n        require(docInstruct[mintId].landlor != address(0),\"mintId was not exist\");\r\n        require((msg.sender == docInstruct[mintId].owner) || (msg.sender == docInstruct[mintId].approver), \"your not owner\");\r\n        if(docInstruct[mintId].lock == true){\r\n            docInstruct[mintId].lock = false;\r\n        }\r\n        else {\r\n            docInstruct[mintId].lock = true;\r\n        }\r\n    }\r\n\r\n    function burn(uint256 mintId) public{\r\n        require(\r\n            docInstruct[mintId].landlor != address(0),\r\n            \"mintId was not exist\"\r\n        );\r\n        require(msg.sender == docInstruct[mintId].owner, \"your not owner\");\r\n\r\n        delete docInstruct[mintId];\r\n\r\n        //import library to delete from array of mintCollection\r\n\r\n        emit Burn(msg.sender, mintId);\r\n\r\n    }\r\n\r\n    function ownerOf(uint256 mintId) public view returns(address){\r\n        require(mintId != 0 , \"mintId was not exist\");\r\n        require(docInstruct[mintId].landlor != address(0) , \"mintId was not valid\");\r\n        return docInstruct[mintId].owner;\r\n    }\r\n\r\n    function landlordOf(uint256 mintId) public view returns (address){\r\n        require(mintId != 0 , \"mintId was not exist\");\r\n        require(docInstruct[mintId].landlor != address(0) , \"mintId was not valid\");\r\n        return docInstruct[mintId].landlor;\r\n    }\r\n\r\n    function approverOf(uint256 mintId) public view returns (address){\r\n        require(mintId != 0 , \"mintId was not exist\");\r\n        require(docInstruct[mintId].landlor != address(0) , \"mintId was not valid\");\r\n        return docInstruct[mintId].approver;\r\n    }\r\n}\r\n",
  "sourcePath": "D:\\Programs\\Maham\\Maham\\Frontend\\src\\contracts\\MHM2023.sol",
  "compiler": {
    "name": "solc",
    "version": "0.8.9+commit.e5eed63a.Emscripten.clang"
  },
  "schemaVersion": "3.4.15",
  "updatedAt": "2023-10-01T08:14:36.824Z",
  "networkType": "ethereum",
  "devdoc": {
    "kind": "dev",
    "methods": {},
    "version": 1
  },
  "userdoc": {
    "kind": "user",
    "methods": {},
    "version": 1
  }
}